:020000040800F2
:1000000028050020C10100085D050008550500080D
:10001000590500085F040008FB0B00080000000001
:1000200000000000000000000000000005070008BC
:100030006304000800000000D9050008510800080A
:10004000DB010008DB010008DB010008DB01000820
:10005000DB010008DB010008DB010008DB01000810
:10006000DB010008DB010008DB010008DB01000800
:10007000DB010008DB010008DB010008DB010008F0
:10008000DB010008DB010008DB010008DB010008E0
:10009000DB010008DB010008DB010008DB010008D0
:1000A000DB010008DB010008DB010008DB010008C0
:1000B000DB010008DB010008DB010008DB010008B0
:1000C000DB010008DB010008DB010008DB010008A0
:1000D000DB010008C9080008DB0100081D09000851
:1000E000DB010008DB010008DB010008DB01000880
:1000F000DB010008DB010008DB010008DB01000870
:10010000DB010008DB010008DB010008DB0100085F
:10011000DB010008DB010008DB010008DB0100084F
:10012000DB010008DB010008DB010008DB0100083F
:10013000DB010008DB010008DB010008DB0100082F
:10014000DB010008DB010008DB010008DB0100081F
:10015000DB010008DB010008DB010008DB0100080F
:10016000DB010008DB010008DB010008DB010008FF
:10017000DB010008DB010008DB010008DB010008EF
:10018000DB010008DB010008DB010008DB010008DF
:10019000DB010008DB010008DB010008DB010008CF
:1001A000DB010008DB010008DB010008DFF80CD0F0
:1001B00000F034F900480047951000082805002099
:1001C0000648804706480047FEE7FEE7FEE7FEE7F1
:1001D000FEE7FEE7FEE7FEE7FEE7FEE7550800085C
:1001E000AD0100082DE9FE4F81EA030404F000444C
:1001F00021F0004100944FF0000B23F0004350EA3F
:1002000001045ED052EA03045BD0C3F30A54C1F385
:100210000A552C44A4F2F3340194A0FB0254C1F318
:10022000130141F48011C3F3130343F4801301FB62
:10023000024400FB034E840A970A44EA815447EAC9
:100240008357A4FB076802958D0A05FB07854FEAD3
:10025000932C04FB0C542705029D4FEA065847EAED
:100260001637B5EB08056EEB070C870E920E47EAC2
:10027000811742EA8312A7FB0201B6EB0B0164EB84
:1002800000042B0D43EA0C335E1844EB1C50DA4695
:100290005146E7FB0201C5F313044FEA0B3343EA6F
:1002A00014534FEA0432019C43EA0603A4F10C0400
:1002B0000294009CCDE900B400F061F803B0BDE801
:1002C000F08F00200146F9E70EB540F2334102916C
:1002D0000021CDE900110A460B4600F050F803B0AA
:1002E00000BDC1F30A5210B5C1F3130140F2FF3350
:1002F00041F480119A4201DA002010BD40F23343EC
:100300009A42A2F2334203DC524200F019F810BDC7
:10031000904010BD30B50B4601460020202201243C
:1003200009E021FA02F59D4205D303FA02F5491BC3
:1003300004FA02F52844151EA2F10102F1DC30BDD9
:10034000202A04DB203A21FA02F00021704721FA2A
:1003500002F3D040C2F12002914008431946704791
:1003600010B5141E73F1000408DA401C41F10001BD
:1003700092185B411A4301D120F0010010BD2DE914
:10038000F04D92469B4611B1B1FA81F202E0B0FA0B
:1003900080F22032904600F053F804460F4640EABF
:1003A0000A0041EA0B0153465A46084313D011464E
:1003B00053EA010019D0C8F140025046FFF7C0FFD0
:1003C00005460E4650465946424600F039F8084365
:1003D00005D0012004E020463946BDE8F08D00201C
:1003E000054346EAE0762C4337430A986305E40A5E
:1003F000A0EB08000022FD0A44EA47540A3002D567
:1004000000200146E9E7010510196941DDE90845C9
:1004100000196941BDE8F04DA2E70000064C074D08
:1004200006E0E06840F0010394E8070098471034C4
:10043000AC42F6D3FFF7BEFEC8120008E81200086F
:10044000202A04DB203A00FA02F100207047914094
:10045000C2F1200320FA03F319439040704700BF14
:10046000FEE77047F0B50A4600210023002400BFD4
:100470003DE0012505FA01F3156805EA03049C42F5
:1004800034D105684F000326BE40B5430560157999
:100490004E00B5400668354305601579012D02D040
:1004A0001579022D16D185684F000326BE40B5434D
:1004B000856055794E00B54086683543856045684E
:1004C00001268E40B5434560456896798E40B6B2A8
:1004D00035434560C5684F000326BE40B543C5603F
:1004E000D5794E00B540C6683543C560491C102912
:1004F000BFD3F0BDF0B5002300244D07ED0E02FA86
:1005000005F3CE1000F1200555F826504E07F70EE2
:100510000F26BE40B543CF1000F1200646F8275005
:10052000CE1000F1200555F8265045EA0304CE1000
:1005300000F1200545F82640F0BD02460020136971
:100540000B400BB1012000E0002070474183704751
:100550000183704700BFFEE700BFFEE77047000061
:1005600070B5002100230F22C4781CB3174C2468F7
:1005700004F4E064C4F5E064C4F30721C1F10404A9
:10058000E3B20A4144789C40E1B2847814402143AC
:100590000C07210E0E4C05786155047804F01F05F8
:1005A0000124AC4005786D11AD0005F1E025C5F8DA
:1005B000004109E0047804F01F050124AC40054D1A
:1005C0000678761145F8264070BD00000CED00E07D
:1005D00000E400E080E100E07047000029B1064A35
:1005E00012680243044B1A6004E0034A1268824313
:1005F000014B1A60704700003038024029B1064AAA
:1006000012680243044B1A6004E0034A12688243F2
:10061000014B1A607047000044380240F0B50021D9
:1006200000220024022500260223324F3F6807F0F3
:100630000C0121B1042905D0082937D105E02E4F3E
:10064000076036E02D4F076033E02A4F3F1F3F68B9
:10065000C7F38056274F3F1F3F6807F03F036EB137
:10066000264FB7FBF3F7DFF88CC0ACF1040CDCF8D5
:1006700000C0CCF3881C07FB0CF40CE01E4FB7FB4A
:10068000F3F7DFF870C0ACF1040CDCF800C0CCF379
:10069000881C07FB0CF4174F3F1F3F68C7F3014747
:1006A0007F1C7D00B4FBF5F7076002E0124F076086
:1006B00000BF00BF0F4F3F6807F0F0010909104F5E
:1006C0007A5C0768D74047600A4F3F6807F4E051FB
:1006D000890A0B4F7A5C4768D7408760054F3F68AF
:1006E00007F46041490B064F7A5C4768D740C76002
:1006F000F0BD0000083802400024F40040787D017D
:1007000000000020704700000CB500200190009010
:100710004148006840F480303F49086000BF3E48CF
:10072000006800F4003000900198401C019000988F
:1007300018B90198B0F5A04FF1D13748006800F41E
:10074000003010B10120009001E0002000900098DE
:10075000012860D130484030006840F080502E4978
:10076000403108602D48006840F440402B49086043
:1007700029480830006828490831086008460068A0
:1007800040F4004008600846006840F4A05008604B
:100790002348091F0860081F006840F08070091F87
:1007A000086000BF1C48006800F000700028F9D005
:1007B0001A48006840F480301849086000BF1748A4
:1007C000406800F480300028F9D01448006840F4F4
:1007D00000301249086000BF1048406800F4003043
:1007E0000028F9D040F205700E4908600A48083028
:1007F000006820F0030008490831086008460068D6
:1008000040F00200086000BF03480830006800F0B4
:100810000C000828F8D10CBD0038024000700040E0
:10082000195A4007003C0240042808D14FF0E0214B
:10083000096941F004014FF0E022116107E04FF037
:10084000E021096921F004014FF0E02211617047B5
:100850007047000010B51548006840F47000134957
:1008600008601348006840F001001149086000204A
:100870000F49083108600E4800680E4908400C49CD
:1008800008600D48091D0860081F006820F48020DA
:10089000091F0860002006490C310860FFF734FF8B
:1008A0004FF0006001498039086010BD88ED00E01C
:1008B00000380240FFFFF6FE1030002410B56FF044
:1008C0000400FFF7B1FF10BD10B540F225511048EC
:1008D00000F0D1F8D0B10E4800F086F90D490E4A6B
:1008E000127888540C480078401C0B490870084660
:1008F0000078401E0749085C0A2807D1064801789D
:10090000044800F0C9FC00200349087010BD000035
:1009100000100140240000201C00002010B540F20F
:1009200025513B4800F0A7F8002870D0384800F067
:100930005BF9C4B22146374800F05BF961E015E08D
:1009400013E04FF4FA7000F03FFA4FF4FA7000F041
:100950003BFA4FF4FA7000F037FA2F4800F036FBFC
:100960002D4881782DA000F04BF9EAE7742CE7D0F0
:1009700015E013E04FF4FA7000F026FA4FF4FA7025
:1009800000F022FA4FF4FA7000F01EFA224800F04C
:100990001DFB2148017825A000F032F9EAE7682C18
:1009A000E7D005E003E020212448FFF7CFFDFAE778
:1009B000302CF7D005E003E020212048FFF7C8FDE8
:1009C000FAE7312CF7D006E004E04FF4E0511C4880
:1009D000FFF7BEFDF9E7322CF6D006E004E04FF455
:1009E000E0511748FFF7B2FDF9E7332CF6D006E0E7
:1009F00004E04FF480611248FFF7A8FDF9E7342CBA
:100A0000F6D04021034800F029F8002897D010BD07
:100A1000004800400010014010000020CEC2B6C8BF
:100A20003D20256420A1E60A00000000CAAAB6C83D
:100A3000203D2025642052480A00000000040240A6
:100A4000001C024021B1828942F40052828104E0FC
:100A500082894DF6FF731A4082817047024600205A
:100A6000B1F5007F00D100BF13880B400BB101200E
:100A700000E00020704770B50246002400230025E6
:100A8000002040F66A16B14200D100BFC1F3421502
:100A900001F01F03012606FA03F3012D02D1968906
:100AA000334006E0022D02D1168A334001E0968AD7
:100AB00033400C12012606FA04F41688344013B1B0
:100AC0000CB1012000E0002070BDF0B50346002409
:100AD00000260025002040F66A17B94200D100BF69
:100AE0001846C1F3421401F01F06012707FA06F564
:100AF000012C01D10C3004E0022C01D1103000E0B7
:100B000014301AB107682F43076002E00768AF434B
:100B10000760F0BD2DE9FF4705460E460024A146BB
:100B200000BFA046B08900B100BF2C8A24F4405415
:100B3000F08804432C82AC8941F20C608443B08875
:100B400031890843718908430443AC81AC8A24F499
:100B50004074B0890443AC826846FFF75FFD2048CB
:100B6000854202D01F48854202D1DDF80C9001E099
:100B7000DDF80890A88900F4004040B109EBC900F5
:100B800000EB091031684900B0FBF1F707E009EB11
:100B9000C90000EB091031688900B0FBF1F764204F
:100BA000B7FBF0F004012009642101FB1078A8894B
:100BB00000F4004040B1322000EBC800B0FBF1F07F
:100BC00000F00700044308E0322000EB0810642125
:100BD000B0FBF1F000F00F0004432C81BDE8FF876B
:100BE000001001400014014001468888C0F308004D
:100BF0007047C1F308028280704700BFFEE7000023
:100C00000FB4054B10B503A9044A029800F018F878
:100C100010BC5DF814FB0000391000082000002013
:100C200002E008C8121F08C1002AFAD170477047B5
:100C3000002001E001C1121F002AFBD17047000013
:100C40002DE9FF4F89B09B460446002506E0252884
:100C50000BD05A460B999047641C6D1C20780028D5
:100C6000F5D10DB02846BDE8F08F0027B846012227
:100C7000474900E0074314F8013F203B02FA03F024
:100C80000842F7D120782E2819D114F8010F47F027
:100C900004072A280ED06FF02F022078A0F130012F
:100CA00009290CD808EB880102EB410100EB01088F
:100CB000641CF2E70A98641C50F8048B0A902078B0
:100CC0000028CED0642808D0692806D075281ED008
:100CD0005A460B9990476D1C58E00A994FF00A0943
:100CE00001C90A91002802DA40422D2102E03905AB
:100CF00004D52B218DF82010012103E0F90704D041
:100D00002021F7E78A4608AE0DE00021FAE70A99AC
:100D10004FF00A0901C90A91F7E74946FFF7FAFAC5
:100D2000303106F8011D0028F7D1ADEB060000F1C7
:100D30002009780701D44FF00108C84502DDA8EB6F
:100D4000090000E000208046002706E008A85A4677
:100D5000C05D0B9990476D1C7F1C5745F6DB04E086
:100D600030205A460B9990476D1CB8F10001A8F14C
:100D70000108F5DC05E016F8010B5A460B9990477F
:100D80006D1CB9F10001A9F10109F4DC641C65E7EF
:100D9000092801001CB501210220FFF71FFC2020BB
:100DA000009001208DF8040000208DF8060003203B
:100DB0008DF8050000208DF8070069460148FFF70F
:100DC00051FB1CBD00040240014645F2E4724A4357
:100DD0004FF0E0235A6100229A611A46126942F0EC
:100DE00001021A6100BF4FF0E022106900F0010219
:100DF0001AB100F48032002AF5D04FF0E0221269D7
:100E000022F001024FF0E0231A6100229A6170473C
:100E100070B52DED048B05462846FFF755FA41ECD9
:100E2000190B9FED160B53EC102BFFF7DBF941EC80
:100E3000180BFFF756FA4FF0E02148610020886157
:100E40000846006940F00100086100BF4FF0E02053
:100E5000046904F0010018B104F480300028F5D0D2
:100E60004FF0E020006920F001004FF0E021086120
:100E700000208861BDEC048B70BD00000000000004
:100E80000080364010B5002400F028F803E0641C10
:100E90000120FFF7BDFF4FF400610F48FFF74DFB46
:100EA000012801D1642CF2D3642C01D9012010BD9A
:100EB000002403E0641C0120FFF7AAFF4FF4006147
:100EC0000548FFF73AFB08B9642CF3D3642C01D929
:100ED0000120ECE70020EAE7002002401CB50121D8
:100EE0000802FFF77BFB4FF40060009000208DF8B4
:100EF00004008DF8060003208DF8050000208DF811
:100F0000070069460148FFF7ADFA1CBD002002400A
:100F10001CB501210802FFF761FB4FF4006000904F
:100F200001208DF8040000208DF8060003208DF8C4
:100F3000050000208DF8070069460448FFF792FA83
:100F40004FF400610148FFF703FB1CBD0020024085
:100F500010B5002403E0641C0120FFF759FF4FF493
:100F600000611148FFF7E9FA012801D1642CF2D39E
:100F7000002403E0641C0120FFF74AFF4FF40061E6
:100F80000948FFF7DAFA08B9642CF3D32820FFF7F1
:100F90003FFF4FF400610448FFF7CFFA012800D16A
:100FA00010BD0020FCE700000020024070B50025C5
:100FB000002400BF06E06006040EFFF7C9FF0443EB
:100FC000681CC5B2082DF6DB204670BD70B504461E
:100FD000002500F01BF8FFF755FF98B900BF03E0AC
:100FE000FFF7E4FF60556D1C052DF9D3207861787B
:100FF0000844A1780844E17808442179884203D064
:10100000012070BD0120FCE70020FAE710B5FFF7D2
:101010007FFF4FF400610748FFF798FA1420FFF7AD
:10102000D3FE4FF400610348FFF792FA1E20FFF74A
:10103000EFFE10BD0020024070B504460D46A1B27F
:101040000548FFF7D6FD00BF40210348FFF706FD26
:101050000028F9D0204670BD001001401CB50121C8
:101060008020FFF7BBFA4FF4E050009001208DF88C
:10107000040000208DF8060003208DF805000020F4
:101080008DF8070069460248FFF7ECF91CBD000027
:10109000001C0240FFF7E2FFFFF77CFE00F0A4F81F
:1010A000FFF70CFC00F07CF83AE000F04FF81D4927
:1010B00008601D48FFF78AFF1A480068C82810D248
:1010C0000EE020211948FFF743FA4FF4FA70FFF7BA
:1010D0007BFE4FF4FA70FFF777FE15A0FFF790FD47
:1010E000EFE710480068C8280FD30E480068B0F535
:1010F000C87F0AD208E04FF440611348FFF726FA90
:1011000020210A48FFF722FAF5E708E04FF4406192
:101110000D48FFF71DFA20210448FFF717FAF5E7FD
:10112000C3E7000018000020100000200004024067
:10113000D6F7C8CBA3ACD3D0C4B0C9FAC8CBBFBF15
:10114000BDFCA3A10A000000001C024010B5002451
:1011500004211248FFF7FAF904211048FFF7F8F9C3
:101160000F20FFF755FE04210C48FFF7EFF900BFF1
:1011700008210A48FFF7E1F90028F9D003E0641CD0
:101180000920FFF745FE08210448FFF7D6F901289A
:10119000F5D0640804EB440010BD000000100240CC
:1011A0001CB501211020FFF719FA00208DF8060068
:1011B00003208DF8050000208DF807000420009022
:1011C00001208DF8040069460648FFF74BF9082016
:1011D000009000208DF8040069460248FFF742F9AC
:1011E0001CBD00000010024000B587B00121084678
:1011F000FFF7F4F901211020FFF700FA4FF4C06067
:10120000059002208DF8180000208DF81A000320A8
:101210008DF8190000208DF81B0005A91C48FFF768
:1012200021F9072209211A48FFF764F907220A2148
:101230001748FFF75FF94FF4165001900020ADF802
:101240000800ADF80A00ADF80C00ADF810000C2055
:10125000ADF80E0001A90F48FFF75CFC25208DF8C2
:10126000000000208DF801008DF8020001208DF8AB
:1012700003006846FFF774F9012240F22551054842
:10128000FFF723FC01210348FFF7DCFB07B000BD9B
:10129000000002400010014070B504460D460BE00E
:1012A00014F8011B0748FFF7A4FC00BF40210548C4
:1012B000FFF7D4FB0028F9D0281EA5F10101CDB21B
:1012C000EED170BD00480040E81200080000002088
:1012D00024000000200C00080C130008240000204B
:1012E00004050000300C00080000000001020304A7
:1012F00001020304060708090000000000000000C6
:0C130000000000000000000000000000E1
:04000005080001AD41
:00000001FF
